2016-04-22 16:32:33.088000: 8=FIX.4.4|9=228|35=D|49=epam4|56=MFIXTradeID|34=3|52=20160422-16:32:33|11=TKCE56Y575|526=8520|1=JPMNCLIENT4|386=1|336=AUST|55=ECZ6|54=2|60=20131118-07:59:48.504|38=1|40=2|44=116.55|59=0|58=SClientOrder|5426=Day Order|5476=Simple Client|10700=Y|10=116|
2016-04-22 16:32:36.751000: 8=FIX.4.4|9=319|35=AB|49=epam4|56=MFIXTradeID|34=4|52=20160422-16:32:36|11=WCGHN3YX21|526=3LEGSTSM|1=JPMNCLIENT4|386=1|336=TAILORED|625=SESSION|55=[N/A]|54=B|167=MLEG|762=1|555=3|600=ACH7|623=110|624=1|566=45.05|600=ACM7|623=777|624=1|566=85.3|600=ACM6|623=333|624=2|566=48.36|60=20160422-16:32:36|38=200|40=2|10700=N|5476=PyFIXClient|10=218|
2016-04-22 16:32:41.752000: 8=FIX.4.4|9=319|35=AB|49=epam4|56=MFIXTradeID|34=5|52=20160422-16:32:41|11=G1T6T4OCIN|526=3LEGSTSM|1=JPMNCLIENT4|386=1|336=TAILORED|625=SESSION|55=[N/A]|54=B|167=MLEG|762=1|555=3|600=ACH7|623=110|624=2|566=45.05|600=ACM7|623=777|624=2|566=85.3|600=ACM6|623=333|624=1|566=48.36|60=20160422-16:32:36|38=200|40=2|10700=N|5476=PyFIXClient|10=205|
2016-04-22 16:32:46.751000: 8=FIX.4.4|9=318|35=AB|49=epam4|56=MFIXTradeID|34=6|52=20160422-16:32:46|11=MGLTL83M6W|526=3LEGSTSM|1=JPMNCLIENT4|386=1|336=TAILORED|625=SESSION|55=[N/A]|54=B|167=MLEG|762=1|555=3|600=ACH7|623=110|624=1|566=83.28|600=ACM7|623=777|624=1|566=85.3|600=ACM6|623=333|624=2|566=47.0|60=20160422-16:32:36|38=200|40=2|10700=N|5476=PyFIXClient|10=176|
2016-04-22 16:32:51.753000: 8=FIX.4.4|9=226|35=D|49=epam4|56=MFIXTradeID|34=7|52=20160422-16:32:51|11=V1A6EBMJ4L|526=8520|1=JPMNCLIENT4|386=1|336=AUST|55=ACH17500C|54=2|38=1|40=2|44=70.28|59=0|10700=Y|60=20160422-16:32:51|58=SClientOrder|5426=Day Order|5476=PyFIXClient|10=153|